:020000040800F2
:10000000D0070020A1010008332C000815280008A3
:10001000312C000841130008E92E00080000000000
:10002000000000000000000000000000CD2C0008CF
:100030008113000800000000352C0008CF2C0008B8
:10004000BB010008BB010008BB010008BB010008A0
:10005000BB010008BB010008BB010008BB01000890
:10006000BB010008BB010008BB010008BB01000880
:10007000BB010008BB010008BB010008BB01000870
:10008000BB010008BB010008BB010008BB01000860
:10009000BB010008BB010008BB010008BB01000850
:1000A000BB010008BB010008BB010008BB01000840
:1000B000BB010008BB010008BB010008BB01000830
:1000C000BB010008BB010008BB010008BB01000820
:1000D000BB010008BB010008BB010008BB01000810
:1000E000BB010008BB010008BB01000800F002F8DA
:1000F00000F047F80AA090E8000C82448344AAF17B
:100100000107DA4501D100F03CF8AFF2090EBAE878
:100110000F0013F0010F18BFFB1A43F0010318473B
:10012000D03E0000F03E0000103A24BF78C878C1ED
:10013000FAD8520724BF30C830C144BF04680C60ED
:10014000704700000023002400250026103A28BF35
:1001500078C1FBD8520728BF30C148BF0B60704739
:10016000662903F0D186002070471FB500F040FBE0
:1001700004000020002103F06BF9E0601FBD10B502
:1001800010BD00F035FC1146FFF7EFFF02F062FFF3
:1001900000F053FC03B4FFF7F2FF03BC00F096FC41
:1001A0000948804709480047FEE7FEE7FEE7FEE70B
:1001B000FEE7FEE7FEE7FEE7FEE7FEE70448054947
:1001C000054A064B70470000492D0008ED00000865
:1001D000D0010020D0070020D0030020D003002051
:1001E0000FB41CB5074B06AA7B44694600900598DE
:1001F00000F0E5FA0020694600F0F4FA1CBC5DF856
:1002000014FB0000F90500002DE9F05F8946044663
:100210004FF0000ADFF824B1FB44C0F820A02046CC
:10022000E168884700287DD0252806D0D4E901213F
:100230009047206A401C2062F1E700255F46204677
:10024000E16888472028064607DB312E05D2B81919
:1002500010F8200C08B10543F1E7A80701D525F0F7
:100260000405C4F81CA00027C4F818A02A2E09D041
:10027000304602F05EFE38B304EB8708303EC8F823
:10028000186019E059F8041B204604EB87029161BD
:10029000E1688847012F064618D1E069002820DA76
:1002A00025F020051DE0D8F8180000EB800006EBD3
:1002B00040003038C8F818002046E16888470646F4
:1002C00002F037FE0028EED1012F0AD02E2E08D1E1
:1002D0002046E16888477F1C0646022F45F020052E
:1002E000C4DBA069002803DA404245F00105A061A3
:1002F000E80701D025F01005A6B1A6F141001928A4
:1003000002D8203645F400654A463146204625602D
:100310004D46FFF725FF60B1012807D0ED1D25F000
:10032000070000E007E000F1080978E705F104099B
:1003300075E730467AE7206ABDE8F09F2C3D000063
:100340004FF0000200B5134694469646203922BF6E
:10035000A0E80C50A0E80C50B1F12001BFF4F7AFB9
:10036000090728BFA0E80C5048BF0CC05DF804EB9B
:10037000890028BF40F8042B08BF704748BF20F809
:10038000022B11F0804F18BF00F8012B7047704707
:100390007047704770472DE9FF4F0C461E464FF0DF
:1003A000FF378BB0D2E90001DDF860800A908A4601
:1003B000C1F30A5505B93D46002108464FF000003B
:1003C000BAF1000F00F4400005DA00EB80004FF4B2
:1003D000400101EA50004FEA9059B9F1010F00DDE8
:1003E000B9460A9850EA4A000ED044F61050A5F2D9
:1003F000FF3545432F14B8F1000F1ED07542291E5A
:100400001EDDC9F100021CE0B8F1010F4FF0000041
:1004100001D0302103E0F24305E02154401CB042FA
:10042000FBDB30460022002121540B99C1F80880E3
:10043000C1E900200FB0BDE8F08FBD1B6D1CDEE7E9
:100440004A4600DA694206A800F05CFA06AB93E877
:10045000070003AB83E8070050460A9900F03DFB14
:100460008DE80700A0F500501F3800900398002D7C
:100470000ADD42F21F014A460844002303A9039003
:10048000684600F0A6FD09E0A0F500504A461F3876
:10049000002303A90390684600F0B0FD8DE8070033
:1004A0000004000C03D04FF0FF30410800E010467C
:1004B000B8F1000F03D00022009215461EE0751E11
:1004C00005D400F099F9303262556D1EF9D5B34666
:1004D0000122084302D000227F1C04E0207830284B
:1004E00001D100227F1E002A099784D01DE0112D22
:1004F00007DA00F081F9303262556D1C50EA0102D2
:10050000F5D1084302D00098C8B10EE00021681E62
:1005100005E0235C625C63542254401E491C814206
:10052000F7DBAB46A81B401E0990002004F80B0027
:100530000B98099AC0F80880C0E9002B7AE71126C9
:100540004FF0000857E72DE9F04F88460446D21DCA
:1005500022F0070191B0D1E90001CDE90A0102F0D2
:10056000C4FC02460B98C00F01D02D2007E0206884
:10057000810701D52B2002E0202101EAC000032AD7
:10058000099001D0072A05DB03464146204600F0CA
:1005900079F90BE12078800601D5E06900E00620BA
:1005A000B8F1650F814606D0B8F1660F18D0B8F1E2
:1005B000670F70D131E00020B9F1110F009001DB1D
:1005C000112301E009F101030AAA01A90CA8FFF710
:1005D000E2FEDDE90C70002609F10105834647E0E3
:1005E00001204B4600904FF000470AAA01A90CA831
:1005F000FFF7D1FEDDE90DB00C995D46002610B97C
:1006000009F101000D18B9EB050003D4C0F1FF3664
:1006100009F10105A5EB09002BE0B9F1010F01DAA1
:100620004FF001090020B9F1110F0090484601DD9B
:10063000112300E003460AAA01A90CA8FFF7ABFEAC
:10064000DDE90C704D4600268346207800070AD469
:10065000AB4500DA5D4601A8012D04DD411911F812
:10066000011C302907D04F4502DA17F1040F04DAD4
:10067000012082460FE06D1EEEE7002F02DCED1B2D
:100680003E4403E0781CA84200DD7D1CB81B00F14D
:10069000010A4FF000472078000703D4AA4501DB88
:1006A0004FF0FF3A0021B7F1004F0DF143088DF8EC
:1006B000431024D002202B23002F01DA7F422D2368
:1006C0000A21021EA0F1010000DC5FB197FBF1FCE2
:1006D00097FBF1F201FB1C7C17460CF1300C08F87B
:1006E00001CDEEE7A8F1010003702188090501D5CD
:1006F000452100E06521A0F1010800F8011C0998DE
:100700000FA9A1EB0807FF1D00B10120411901EB62
:10071000EA70A1693844081A401EA0612078C0061A
:1007200002D42046AFF30080099828B1D4E9012112
:100730009047206A401C20622078C00622D52046BF
:10074000AFF300801EE0002E04DBB34502DD01A8FC
:10075000805D00E03020D4E901219047206A401CF0
:100760002062761CAAF101005FEA000A0AD100F0BB
:100770003FF8C0680168405CD4E901219047206AD5
:10078000401C2062281EA5F10105DCDC07E0D4E94D
:10079000012118F8010B9047206A401C2062381E86
:1007A000A7F10107F3DC2046AFF30080032011B06E
:1007B00041E6000001694A1C02610878704700B5F3
:1007C0008FB0CDE901310021059105497944CDE98A
:1007D000031011466846FFF717FD0FB000BD00007B
:1007E000E5FFFFFF0A6802F8010B0A60704700008E
:1007F000004870479001002030B5B0F10A024FEA7E
:10080000900E71F100034EEA817EB0EB0E0061EBB9
:1008100091014FEA101E4EEA017E10EB0E0041EBF3
:1008200011114FEA102E4EEA016E10EB0E0041EB53
:1008300011214FEA104E4EEA014E10EB0E0041EB33
:100840001141401841F100014FEAD00040EA4170E7
:100850004FEAD10110EB80054FEA810444EA90741D
:1008600044EB01046D1944EB0404521BA3414FF007
:10087000000348BF0A3200D530BD401C41F10001E1
:1008800030BD00002DE9F0411F46044603260168F3
:10089000072A01F4006004DB08B116A505E016A5DF
:1008A00003E008B115A500E015A521F010002060B7
:1008B000A069C01EA0610FB1401EA0612046AFF329
:1008C00000804FB1D4E9012138469047206A401C8E
:1008D0002062C01C206206E0206AFAE7D4E9012108
:1008E00015F8010B9047761EF8D22046AFF3008032
:1008F000BDE8F0814E414E006E616E00494E4600EB
:10090000696E66002DE9F047814616468AB0354883
:1009100078440DC88DE80D0032487844801C03AC43
:100920000DC884E80D0041F69B300844372190FB48
:10093000F1F290FBF1F5A5F1800501FB12041B3CDF
:1009400002D56442012000E00020DFF898A0804634
:100950000027FA44AAF1BE0A0EE0E0070AD03246A8
:10096000684607EB470101230AEB810100F046FBD3
:100970008DE8070064107F1C002CEED1194F7F44D6
:10098000AE3F19E0E80715D007EB04100DF1180A87
:1009900090E80E008AE80E00C068F04201D1981974
:1009A00008903246012306A903A800F027FB03ABF9
:1009B00083E807006D10641C002DE3D14FF00103A4
:1009C00032466946B8F1000F03A802D000F001FBDF
:1009D00001E000F013FBC9E90001C9F808200AB0E2
:1009E000BDE8F087C4360000004870477001002061
:1009F0007546FFF7F9FFAE4605006946534620F0FD
:100A00000700854618B020B5FFF7D8FBBDE82040A9
:100A10004FF000064FF000074FF000084FF0000BBA
:100A200021F00701AC46ACE8C009ACE8C009ACE86D
:100A3000C009ACE8C0098D46704710B50446AFF355
:100A400000802046BDE81040FFF7A4BB4FF0013CFA
:100A500050F8042B51F8043B9A4221D1A2EB0C032D
:100A6000934313EACC1317D150F8042B51F8043BED
:100A70009A4215D1A2EB0C03934313EACC130BD18A
:100A800050F8042B51F8043B9A4209D1A2EB0C0315
:100A9000934313EACC13DBD04FF00000704700BF44
:100AA000D01A01BAB1FA81F101F0180122FA01F06D
:100AB000CB40C1F12001DBB2C0B2C01A2CFA01F365
:100AC000D11A914311EAC311E6D1704701491820A8
:100AD000ABBEFEE72600020070475FEA400C08BF8D
:100AE00091F0000F4FEA8C234FEAC12243EA5151A3
:100AF0004FEA1C5018BF00F5F0404FEA300018BF15
:100B000041F000415FEA6C5C00F02980BCF1FF3FDE
:100B100008BF40F080407047130C06BF12044FF02E
:100B2000100C4FF0000C130E04BF12020CF1080C55
:100B3000130F04BF12010CF1040C930F04BF9200B9
:100B40000CF1020CD30F04BF52000CF1010C114642
:100B50004FF00002A0F11F00A0EB0C00704711F055
:100B6000004F08BF704731F000413FF4D5AF0B0C88
:100B700006BF09044FF0100C4FF0000C0B0E04BF21
:100B800009020CF1080C0B0F04BF09010CF1040C55
:100B90008B0F04BF89000CF1020CCB0F04BF49007E
:100BA0000CF1010CCCF12003A0EB0C0022FA03F3B2
:100BB00002FA0CF241EA030100F10100704720F053
:100BC0007F4C80EA030023F07F47ACEB070303F57B
:100BD0007C5300F0004003F1FF032DE980494FEA08
:100BE000154B09B44FEA144325EA0B4E24EA034897
:100BF0000FF2042606EB132749083E785FEA32021B
:100C000003FB0667C7F5000707FB06F64FEA5437F4
:100C10004FEAD64606F1020607FB066CCCF1005CF3
:100C20004FEA1C472CEA074C07FB06F40CFB06F5C1
:100C300004EB15464FEA961634BF00204FF00040F3
:100C40004FEAD13706FB07FC4FEA1C4C0CFB0BF7B5
:100C5000D21B03FB0CF761EB07010CFB0EF7B0EBAB
:100C6000074072EB17420CFB08F734BFA2EB0742B8
:100C7000B2EB074261EB17414FEA0C444FEA910790
:100C800006FB07FC4FEA1C4C0CFB0BF7B0EBC74014
:100C900072EB573203FB0CF734BFA2EBC742B2EB47
:100CA000C74261EB57310CFB0EF7B0EBC70072EB9C
:100CB00057720CFB08F734BFA2EBC702B2EBC702B6
:100CC00061EB5771039F4FEA816141EA921104EB96
:100CD000CC044FEAD1374FEA826206FB07FC42EAB6
:100CE00090124FEA80604FEA1C4C0CFB0BF7D21BB2
:100CF00003FB0CF761EB07010CFB0EF7B0EB0740B1
:100D000072EB17420CFB08F734BFA2EB0742B2EBC1
:100D1000074261EB17414FEA8C554FEA910704EB0C
:100D20009C2406FB07FC4FEA1C4C0CFB0BF7B0EBBA
:100D3000C74072EB573203FB0CF734BFA2EBC7423C
:100D4000B2EBC74261EB57310CFB0EF7B0EBC700BB
:100D500072EB57720CFB08F734BFA2EBC702B2EB81
:100D6000C70261EB577115EB4C254FEA816141EAEF
:100D700092114FEA82624FEAD13742EA901206FBA3
:100D800007FC44F100044FEA80604FEA1C4C0CFB66
:100D90000BF7D21B03FB0CF761EB07010CFB0EF703
:100DA000B0EB074072EB17420CFB08F734BFA2EB25
:100DB0000742B2EB074261EB174115EB1C154FEAF6
:100DC000813141EA92414FEA823242EA90424FEA4F
:100DD00080304FEA0C7644F1000448EA03434EEABF
:100DE0000B484FF0000EB2EB080C71EB030724BF69
:100DF000624639464EEB0E0E4FF0000B0018524182
:100E000049414BEB0B0BB2EB080C71EB03077BF189
:100E1000000B24BF624639464EEB0E0E4FF0000B1E
:100E20000018524149414BEB0B0BB2EB080C71EB34
:100E300003077BF1000B24BF624639464EEB0E0ED2
:100E400051EA020718BF46F0010616EB0E7655F17F
:100E5000000254F1000103D5BDE88901BDE8008816
:100E6000BDE88901BDE80048B619524141EB0101D6
:100E7000A3F10103704780807F7E7D7C7B7A797847
:100E8000777676757473727171706F6E6E6D6C6C4F
:100E90006B6A6A69686867666665646463636261F1
:100EA0006160605F5F5E5E5D5D5C5C5B5B5A5A5972
:100EB00059585857575656555555545453535252DE
:100EC0005251515050504F4F4F4E4E4D4D4D4C4C36
:100ED0004C4B4B4B4A4A4A4949494848484747477F
:100EE00047464646454545444444444343434342BC
:100EF000424242414141002B9C4630D477002BD0E6
:100F00001CB54FEA370703B44FF010004FF0100143
:100F1000BAF1000F06D0BCF1000FDCBF40F00800B2
:100F200040F008014FF000000FBCBDE810400BF18D
:100F3000010BBBF1010F08BF5FEA170722BF12F1D7
:100F4000010211F101014FF0004143F1000300F0F3
:100F5000004043EA00007047F9D35708D0E746EA5B
:100F6000064613F1400F4FEA16461FDD13F1200F1E
:100F7000DFBF16430A46002120335B42BED0C3F1D7
:100F8000200746EA064602FA07F74FEA164646EAFF
:100F90000706C3F1200722FA03F201FA07F721FA44
:100FA00003F14FF0000342EA0702A7E746EA020610
:100FB00046EA06464FEA164646EA0106BCBF46EA3E
:100FC0000646360C4FF000034FF000024FF00001D0
:100FD00094E72DE9804C9A46934670B491E8380026
:100FE00007C831EA400C48BF34EA430C03D5FFF789
:100FF000E6FDFFF780FFF0BCBDE8008C2DE9804CDA
:101000009A46934670B491E8380007C810F0804FB4
:1010100008BF13F0804F03D100F005F8FFF76BFF16
:10102000F0BCBDE8008C20F07F4780EA030023F08D
:101030007F4C07EB0C03A3F57C5300F00040A3F1B9
:10104000FE0392F0000F00F0B38095F0000F00F067
:1010500077802DE901494FEA11404FEA144621EA11
:10106000004800FB06FC24EA064708FB06F607FBDF
:1010700008F800FB07F718EB06484CEB164C4FEA54
:10108000124B18EB07484FEA15464CEB174022EA83
:101090000B4E0BFB06FC25EA06470EFB06F607FB8C
:1010A0000EFE0BFB07F71EEB064E4CEB164C4FF0FB
:1010B00000061EEB074E4CEB174B18EB0B0840F1EC
:1010C000000018EB0E0B58EB000840F100008F1ADF
:1010D0004FF000013CBFC943661B14BFB5EB040CC5
:1010E00000213CBFC943F61B4FEA17444EEA8E0E5F
:1010F00027EA04454FEA1C4704FB07622CEA074C29
:1011000005FB07F70CFB05F604FB0CFC16EB07468A
:1011100042EB174216EB0C4642EB1C421BEB060659
:1011200058EB0202414146EA9E0601D5BDE801891D
:10113000B619524141EB0101A3F10103BDE8018958
:101140004FEA14454FEA114724EA054621EA074CC5
:1011500005FB07F406FB07F70CFB06F105FB0CFC8F
:1011600011EB074144EB17444FEA124711EB0C41D6
:1011700044EB1C4422EA074C05FB07F206FB07F789
:101180000CFB06F605FB0CFC16EB074642EB174280
:1011900016EB0C4642EB1C456A1854F1000148BF9F
:1011A0007047B619524141EB0101A3F101037047A9
:1011B00095F0000F37D04FEA11424FEA144721EA69
:1011C000024624EA074C02FB07F106FB07F70CFB7B
:1011D00006F402FB0CFC14EB074441EB17414FEA09
:1011E000154714EB0C4441EB1C4125EA074C02FB6C
:1011F00007F506FB07F70CFB06F602FB0CFC16EBEB
:10120000074645EB174516EB0C4645EB1C421219F9
:1012100051F1000148BF7047B619524141EB01013D
:10122000A3F1010370474FEA14454FEA114724EA3E
:10123000054621EA074C05FB07F106FB07F70CFB07
:1012400006F24FF0000605FB0CFC12EB074241EBE7
:10125000174112EB0C4251EB1C4148BF70479218EA
:1012600041EB0101A3F101037047000070B5044692
:1012700000688168C943C90717D1816821F001015D
:10128000816000F0DFFB05460AE000BF00F0DAFBFA
:10129000401B022804D920688068C043C00706D0DC
:1012A00020688068C043C007F0D0002070BDA06AED
:1012B00040F01000A062E06A40F00100E06201200E
:1012C00070BD0000F8B500260446009600688168ED
:1012D000C943C9072DD0816841F0010181601648DA
:1012E00016490068B0FBF1F000E0401E00900028B5
:1012F000FBD100F0A7FB054616E000BF00F0A2FB03
:10130000401B022810D920688068C043C0070BD05A
:10131000A06A40F01000A062E06A40F00100E062C4
:1013200084F824600120F8BD20688068C043C007AD
:10133000E4D10020F8BD00002800002040420F004A
:10134000FEE7000010B502F0CBFA0022094B02F0D4
:101350006FF90022084B02F0D7FA02F08FF802F082
:10136000C7FC4FF06632054B02F0CEFABDE81040E4
:1013700002F084B800FEAF400000144066660640EC
:1013800070470000F8B50024009490F8242025460A
:10139000012A12D0012280F824204A681F23072A3C
:1013A0000DD20668776B521E02EB820293409F4378
:1013B0000B6893401F43776319E00220F8BD06686D
:1013C0000D2A0AD2376BD21F02EB820293409F4351
:1013D0000B6893401F43376309E0F76A0D3A02EB4D
:1013E000820293409F430B6893401F43F7620A6851
:1013F000072306680A2A0AD3F7680A3A02EB420270
:1014000093409F438B6893401F43F76008E0376920
:1014100002EB420293409F438B6893401F43376126
:101420000A68102A01D0112A20D1124B02689A4270
:1014300017D193681B0219D4936843F40003936097
:101440000968102912D10C490C4A0968B1FBF2F164
:1014500001EB8101490000E0491E00910029FBD108
:1014600004E0816A41F020018162012480F8245067
:101470002046F8BD002401402800002040420F0013
:101480000068C06C704700002DE9F0414FF0000784
:1014900004003D467ED0A06A002628B9E66284F8A2
:1014A0002460204600F07EF82046FFF7DFFEA16AA8
:1014B000C90600D420B1A06A40F01000A06269E023
:1014C000A16A21F4885141F00201A1626268E169D8
:1014D000237B0A4347EA43010A43A1684FF480771C
:1014E000B94209D0012907D05FF0000194F814C077
:1014F000BCF1010F02D00AE03946F7E7F3B1A36A65
:1015000043F02003A362E36A43F00103E36223682C
:10151000D3F804C02CF4694C4CEA010CC3F804C0A5
:1015200021688B68DFF870C003EA0C0313438B60FB
:10153000A168B9420BD0012909D00CE0DFF85CC0EA
:10154000A3690CEB43330B4343F40061DFE7218ACB
:101550000D05A5F580152168CB6A23F470032B4394
:10156000CB62216889680E4B1940914208D1E6622E
:10157000A16A21F0020141F00101A162BDE8F08100
:10158000A06A20F0020040F01000A062E06A40F083
:101590000100E0620120F1E7FDF7E1FF00E0FFFF5D
:1015A000FE0E1FFF00B585B0002100910191029150
:1015B000039100680E49884218D10E48816941F4B0
:1015C00000718161816901F400710491816941F0C8
:1015D000040181618069694600F004000490512093
:1015E000009003200190044800F032F905B000BDDE
:1015F0000024014000100240000801402DE9F8439A
:1016000000270D460446009700F01CFA804620682B
:101610008168C90508D5A06A40F02000A06284F85E
:1016200024700120BDE8F8834168C90503D4C06A6D
:1016300010F4700F2AD0022000F01CFC3B4909680E
:10164000B1FBF0F62068036939490B424FEA6101AA
:101650004FEAA1121FD1C3684FEA611C13EA0C0FB5
:1016600019D103690B4225D1C068104222D1142040
:1016700023E0681C0AD02DB100F0E4F9A0EB0800CB
:10168000A84203D920680068800725D52068006833
:101690008007EED52DE003690B4202D1C1681142EB
:1016A00006D0026923490A4206D1C068084203D124
:1016B000542002E0292000E0FC204643009816E078
:1016C000681C11D02DB100F0BDF9A0EB0800A842B4
:1016D0000AD90098B04207D2A06A40F00400A06284
:1016E00084F8247003209DE70098401C0090B042CD
:1016F000E6D321686FF012000860A06A40F4007021
:10170000A06220688068C0F3424007280CD1207B8B
:1017100050B9A06A20F48070A062A06AC00403D40B
:10172000A06A40F00100A06200207BE728000020B2
:10173000244992244992240070B5044690F824006C
:1017400001280DD0012084F824002046FFF7BAFDBF
:1017500002004FF0000005D084F82400104670BD50
:10176000022070BDA16A40F20123994341F48071C7
:10177000A1621F4D23681F49AB4218D10E6816F4B1
:10178000702F14D0A66A46F48016A6620E687605FD
:1017900005D5A66A26F4005646F48056A662A66AC7
:1017A000F6040AD5E66A26F00606E66206E0A66AB0
:1017B00026F48016A6625E68E9E7E06284F82400F9
:1017C0006FF00200186020688368C3F34243072B60
:1017D00005D1A84208D1096811F4702F04D081689E
:1017E00041F480118160B9E7816841F4A001F9E713
:1017F000002801400424014010B5044690F824005C
:10180000012807D0012084F824002046FFF72EFD90
:1018100010B107E0022010BDA16A21F4885141F007
:101820000101A162002184F8241010BD70B50446A6
:1018300000F008F90546601C02D004480078044412
:1018400000F000F9401BA042FAD370BD1C0000203C
:101850002DE9F84FDFF8B8910024A9F1040B2346D5
:101860000F2709F1040AABF1040EC9E00125A540D8
:101870002A40AA427DD1674ED1F804C0ACEB0608DD
:10188000B44532D014DCBCF1030F3AD009DCBCF112
:10189000000F2AD0BCF1010F1CD0BCF1020F31D1D6
:1018A0001DE0BCF1110F17D0BCF1120F2AD119E0C5
:1018B000B8F5881F19D006DCB8F5803F15D0B8F50B
:1018C000801F1FD111E0B8F5001F0ED0B8F5041F1E
:1018D00018D10AE0CB6815E0CB681B1D12E0CB687D
:1018E00008330FE0CB680C330CE08B682BB1012B75
:1018F0004FF0080303D0456104E0042302E00561D2
:1019000000E00023FF2A01D8064601E000F10406AA
:101910004FEA840501D9A5F12005D6F8008007FA21
:1019200005FC28EA0C0803FA05F548EA0508C6F89C
:1019300000804D68ED0062D5374DAE6946F0010676
:10194000AE61AD6924F0030605F001050095334D45
:1019500006EB050CDCF80850A607360F07FA06F868
:1019600025EA0805DFF8B880404503D14FF00008AC
:1019700017E044E0DFF8AC80404502D14FF00108A9
:101980000FE0DFF8A480404502D14FF0020808E0E4
:10199000DFF89880404502D14FF0030801E04FF096
:1019A000040808FA06F848EA0508CCF808804D68EB
:1019B000D9F80060ED024D4601D5164300E096438C
:1019C0002E604D68DAF80060AD02554601D5164329
:1019D00000E096432E604D68DBF80060AD035D4685
:1019E00001D5164300E096432E604D68DEF8006096
:1019F000ED03754601D5164300E096432E60641C46
:101A00000D682A46E5407FF431AFBDE8F88F00004D
:101A100008040140000011100010024000000140C5
:101A200000080140000C014000100140001401407A
:101A30008068084000D0012070470AB101617047FA
:101A40000904FBE701488068704700001C00002083
:101A500070B5040025D094F83D00002520B984F825
:101A60003C50204600F04EF9242084F83D002068C8
:101A7000016821F0010101602068016841F4004122
:101A800001602068016821F40041016000F050FB12
:101A90004D4A6168914201D84C4900E04C49884266
:101AA00001D2012070BD4B492368B0FBF1F15E68A3
:101AB00026F03F060E435E606368934206D94FF4FA
:101AC000967359434FF47A73B1FBF3F12368491CC1
:101AD0001E6A26F03F06314319626168914210D8B0
:101AE0004900401EB0FBF1F2521CC2F30B02042A63
:101AF00001D2042022E0B0FBF1F0401CC0F30B0047
:101B00001CE0A268F2B301EBC10303EB0116431E14
:101B1000B3FBF6F35B1C43F480431B0549D092B33F
:101B200001EBC10202EB0111401EB0FBF1F0401CC1
:101B3000C0F30B0040F4804040F400402168CA69C3
:101B40004CF6FF739A431043C861D4E90710014370
:101B50002068026822F0C00211430160D4E9030149
:101B600001432068826848F2FF339A431143816041
:101B7000D4E9050108432168CA6822F0FF02104336
:101B8000C86001E00EE016E02068016841F0010144
:101B900001602564202084F83D00256384F83E50D0
:101BA000002070BD01EB4106431EB3FBF6F35B1C46
:101BB000B3E70120C2E701EB4101401EB0FBF1F0A9
:101BC000401CC0F30B00B7E7A086010080841E0014
:101BD00000093D0040420F002DE9F84F1F46904696
:101BE0008A460446DDF82890FFF72CFF054694F856
:101BF0003D0020287FD1192301224049204600952D
:101C000000F09AFE002876D194F83C00012872D0AA
:101C1000012084F83C0020680168C90703D10168ED
:101C200041F0010101602068016821F40061016058
:101C3000212084F83D00102084F83E000026266410
:101C4000C4F824806785608D20852D48E0622B468E
:101C50004A465146204600F0F5FD90B9206841699A
:101C60008069009036E02A464946204600F00AFF87
:101C700050B1206C042804D12068016841F400713F
:101C800001600120BDE8F88F606A21680078086172
:101C9000606A401C6062618D491E6185218D491E0C
:101CA00089B2218522685369DB435B070BD451B1AC
:101CB00000781061606A401C6062608D401E608523
:101CC000208D401E20852A464946204600F008FE09
:101CD0000028CED1208D0028C5D154F83D0B0168D5
:101CE00041F400710160202004F81E09E677667750
:101CF0000020C7E7FFE70220C4E700000200100051
:101D00000000FFFF10B586B0002100910191029103
:101D1000039100680F4988421AD10F4CA06940F026
:101D20000800A061A069694600F008000490C02086
:101D3000009012200190032003900848FFF788FDCF
:101D4000E06940F40010E061E06900F400100490E4
:101D500006B010BD0054004000100240000C0140CD
:101D60000248816802781144816070471C0000209D
:101D7000074810B5016841F010010160032000F030
:101D800067F80F2000F006F800F024F8002010BDDE
:101D90000020024070B50D4D04464FF47A7128784A
:101DA000B1FBF0F00A490968B1FBF0F000F096FBD6
:101DB00048B9102C07D200222146501E00F028F806
:101DC00000206C6070BD012070BD00001C00002070
:101DD000280000200C4808B5816941F001018161AB
:101DE000816901F001010091C16941F08051C16137
:101DF000C06900F0805000900448416821F0E06123
:101E000041F00071416008BD001002400000014037
:101E1000F0B40E4B1B680C46C3F30223C3F1070555
:101E2000042D00D90425191D072901D2002300E043
:101E3000DB1E012606FA05F1491E214099409E400D
:101E4000761E16403143F0BC01F063B80CED00E0A3
:101E5000064900F0070208684FF6FF03184040EA01
:101E60000220034A10430860704700000CED00E0B8
:101E70000000FA0510B501460020234C012922D0AC
:101E8000022939D010291DD161682268D20119D5E3
:101E90001E48C1F38342C903805C0AD561681B4AAE
:101EA000C1F34041921E515C194AB2FBF1F1484323
:101EB00001E0184948436168490203D44000032106
:101EC000B0FBF1F010BD226AC2F30121012903D158
:101ED000920701D5C80310BD022905D1626A920795
:101EE00002D549F6404010BD0329FCD12168890381
:101EF000F9D54FF2244010BD00F02AF96168C1F312
:101F00008131491C4900DBE700100240203F0008F6
:101F100000127A0000093D002DE9F84305460078DB
:101F2000354CC00754D0E0690026C00008D4E069F1
:101F300040F08050E061E069012600F080500090A0
:101F40002E480168C90512D40168804641F48071A9
:101F50000160FFF777FD074605E000BFFFF772FD60
:101F6000C01B642823D8D8F80000C005F6D5206A25
:101F700010F4407021D0A98801F4407181421CD036
:101F8000206A1F49012220F440700A6000220A6082
:101F90002062C00711D0FFF755FD074641F288388F
:101FA00008E000BFFFF74EFDC11B414502D90320E9
:101FB000BDE8F883206A8007F4D5206A696820F4B8
:101FC0004070084320621EB1E06920F08050E0615B
:101FD0002878800705D56068A96820F44040084348
:101FE00060602878C00605D56068E96820F4800044
:101FF000084360600020DBE70010024000700040F2
:10200000400442422DE9F0470F46050061D0434E9F
:10201000306800F00700B84209D2306820F00700AD
:1020200038433060306800F00700B84251D128686A
:102030003B4C810712D5400703D5606840F4E0604F
:1020400060602878000703D5606840F460506060E5
:102050006068A96820F0F000084360602878C00735
:1020600028D06868012810D02168022810D089077C
:1020700000292EDA616821F0030101436160FFF756
:10208000E1FC804641F288390DE021688903EFE7E1
:102090008901EDE7FFF7D6FCA0EB0801494502D91D
:1020A0000320BDE8F0876068696800F00C00B0EBC1
:1020B000810FEFD1306800F00700B8420BD93068CB
:1020C00020F0070038433060306800F00700B84265
:1020D00001D00120E5E72878400705D56068E96868
:1020E00020F4E060084360602878000706D5606847
:1020F000296920F4605040EAC100606000F038F8BF
:102100006168084AC1F30311515CC8400649086080
:1021100006480068FFF73EFE0020C2E700200240AC
:1021200000100240303F000828000020200000205E
:102130000448054900684968044AC1F30221515C1A
:10214000C84070472800002000100240403F0008AF
:102150000448054900684968044AC1F3C221515C3A
:10216000C84070472800002000100240403F00088F
:102170000E4A51680E4801F00C03042B11D0082BB5
:102180000FD10C48C1F38343C903C05C0AD5516821
:10219000084AC1F34041921E515C054A5043B0FBCE
:1021A000F1F07047044948437047000000100240B6
:1021B00000127A000E3F000800093D002DE9F84F9B
:1021C000040070D02078C04DC00749D06868C0F3C3
:1021D0008100012807D06868C0F38100022809D176
:1021E0006868C00306D52868800339D56068002870
:1021F000E7D035E06068B0F5803F0BD010B1B0F5A6
:10220000A02F11D0286820F480302860286820F49E
:10221000802002E0286840F480302860606890B137
:10222000FFF710FC06460AE0286840F4802028608A
:10223000F0E700BFFFF706FC801B642873D828680E
:102240008003F7D50CE0FFF7FDFB064605E000BF75
:10225000FFF7F8FB801B6428F0D828688003F7D4C8
:1022600020789A4E80074FF001094FF0000839D5C9
:10227000686810F00C0F07D06868C0F3810002286E
:1022800009D16868C00306D42868800714D520697E
:10229000012808D110E02069B0B1C6F80090FFF71E
:1022A000D1FB074605E00AE1FFF7CCFBC01B022883
:1022B000C4D828688007F7D52868616920F0F8003D
:1022C00040EAC10028600DE0C6F80080FFF7BAFBC5
:1022D000074604E0FFF7B6FBC01B022823D8286896
:1022E0008007F7D4207800072CD57948A169D9B1A7
:1022F000C0F80090FFF7A6FB074604E0FFF7A2FB3B
:10230000C01B02280FD8686A8007F7D571484FF4C0
:10231000FA510068B0FBF1F0009000BF0098411E38
:102320000091FAD20EE080E0C0F80080FFF78AFB4F
:10233000074604E0FFF786FBC01B022875D8686AD1
:102340008007F7D42078400760D5E8690027C000EF
:1023500008D4E86940F08050E861E869012700F09E
:10236000805000905C480168C90513D40168834619
:1023700041F480710160FFF765FB824606E000BF13
:10238000FFF760FBA0EB0A0064284ED8DBF80000E2
:10239000C005F5D5E06801280AD008B1052813D09A
:1023A000286A20F001002862286A20F0040002E078
:1023B000286A40F001002862E06841F2883B98B149
:1023C000FFF740FB82460BE0286A40F004002862D9
:1023D000EEE700BFFFF736FBA0EB0A0159455AD8DC
:1023E000286A8007F6D50CE0FFF72CFB824605E053
:1023F000FFF728FBA0EB0A0159454CD8286A800753
:10240000F6D41FB1E86920F08050E861E06988B334
:102410006968C1F38101022944D00228C6F86080AE
:1024200004D0FFF70FFB044638E034E0FFF70AFB67
:10243000074604E0FFF706FBC01B02282BD82868DC
:102440008001F7D4206AB0F5803F05D16868A168A3
:1024500020F4003008436860D4E908010843696843
:1024600021F4741108436860C6F86090FFF7EAFA37
:10247000044606E025E000BFFFF7E4FA001B02284F
:1024800009D828688001F7D51BE000BFFFF7DAFA0A
:10249000001B022802D90320BDE8F88F28688001BC
:1024A000F4D40EE00128F7D06868226A00F4803185
:1024B000914204D1616A00F47010884201D0012079
:1024C000EAE70020E8E70000001002400000424276
:1024D00080044242280000200070004010B5401ED9
:1024E000B0F1807F01D3012010BD4FF0E024606186
:1024F0000F21601700F00DFD0020A0610720206172
:10250000002010BD70B590F83C20012A26D001248F
:1025100080F83C40022280F83D2003685A689D689C
:1025200022F070060A6832435A600D4B02689A42E4
:1025300008D0B2F1804F05D00A4B9A4202D00A4B24
:102540009A4204D1496825F080031943916080F8CC
:102550003D40002180F83C10084670BD022070BD4F
:10256000002C0140000400400008004010B50400A9
:1025700003D094F83D0010B107E0012010BD002009
:1025800084F83C00204600F01FF8022084F83D004B
:10259000211D206800F0DAFB012084F8460084F851
:1025A0003E0084F83F0084F8400084F8410084F83D
:1025B000420084F8430084F8440084F8450084F81D
:1025C0003D00002010BD000008B50068B0F1804F4C
:1025D00008D10548C16941F00101C161C06900F03D
:1025E0000100009008BD00000010024090F83D106E
:1025F000012901D001207047022180F83D100068B8
:102600000B49884208D0B0F1804F05D00949884273
:1026100002D00949884204D1816801F007010629E6
:1026200003D0016841F00101016000207047000003
:10263000002C0140000400400008004001680A6AC4
:1026400041F211131A4207D10A6A9B101A4203D1B0
:102650000A6822F001020A60012180F83D10002082
:10266000704770B5044690F83C000025012817D04B
:10267000012684F83C60022084F83D0020688268CE
:1026800022F0770222F47F4282600868502838D016
:102690000DDC20284FD005DC90B3102811D14AE082
:1026A000022070BD302846D040280AD13BE0602887
:1026B0002FD070280DD0B0F5805F03D0B0F5005F4B
:1026C00012D0012584F83D60002084F83C002846A3
:1026D00070BDCB68D1E90121206800F073FB206850
:1026E000816841F0770109E0CB68D1E901212068D8
:1026F00000F068FB2068816841F480418160E1E777
:1027000019E0CA684968206800F06EFB5021206813
:1027100006E0CA684968206800F077FB60212068FD
:1027200000F05AFBCEE7CA684968206800F05CFBFD
:1027300040212068F4E7226801461046F0E770B5B2
:10274000040004D094F84100002510B106E00120F7
:1027500070BD84F84050204600F024F8242084F80E
:1027600041002068C16821F40051C160204600F09A
:102770005FFB2068016921F4904101612068416993
:1027800021F02A0141612068C16841F40051C16013
:102790006564202084F8410084F8420065630020CD
:1027A00070BD000030B585B00024009401940294FF
:1027B000039400681449884224D11448816941F483
:1027C00080418161816901F480410491816941F016
:1027D0000401816180690E4D00F0040004904FF403
:1027E0000070009002200190032003906946284663
:1027F000FFF72EF82815CDE9000469462846029413
:10280000FFF726F805B030BD003801400010024047
:1028100000080140FEE701684A69D24352050FD41F
:102820006FF480624A61002140F8301F2022427319
:102830008173026942F00402026101730120704752
:1028400000207047F8B50446C06A1E460D4617467C
:10285000082807D0012805D010F5803F02D0206B52
:10286000122804D12068016841F480710160134688
:1028700000224FF001112046009600F05DF840B1B3
:1028800020680068C00502D54FF400702064032062
:10289000F8BD2069B0F5804F0ED00620216800EA0F
:1028A000D51040F0F000086133463A460B49204607
:1028B00000F08AF878B902E005F0FE0000E0E8B226
:1028C00021680861054933463A46891F204600F0D1
:1028D0007BF80028DCD00120F8BD000008000100D2
:1028E00070B516460D4604461EE02046FFF793FFDE
:1028F00008B1012070BD681C16D0FFF7A3F8801B3B
:10290000A84200D885B920684069C04340070BD56C
:10291000002044F8300F20216173A073216941F039
:10292000200121612073E4E720684069C04340072B
:10293000DBD4002070BD00002DE9F0479846174613
:102940000D460446C1F30746DDF820902AE000BF9B
:10295000B8F1FF3F26D0FFF775F8A0EB090141451C
:1029600002D8B8F1000F1DD12068012E16D0806961
:1029700025EA00000004000C12D00020B84211D15A
:10298000002044F8300F20216173A073216941F0C9
:102990002001216120730120BDE8F0874069E7E74D
:1029A0000120EBE72068012E0AD0806925EA0000AB
:1029B0000004000C06D00020B842C9D00020EBE78C
:1029C0004069F3E70120F7E72DE9F04798461646FE
:1029D0000D4604464FF000094FF0200AC1F30747A7
:1029E00023E020684069C043400515D42068016891
:1029F00041F40071016021686FF480604861C4F89F
:102A0000309084F83DA084F83E90216C41F00401A0
:102A1000216484F83C9021E0701C06D0FFF712F886
:102A2000A0EB0800B04203D816B1012F1FD021E05F
:102A30002068012F15D0806925EA00000004000CF1
:102A400018D000BF44F8309F84F80DA084F80E9091
:102A5000216941F02001216184F80C900120BDE83A
:102A6000F087406925EA00000004000CEAD12068E4
:102A7000406901E02068806925EA00000004000C3C
:102A8000AFD1ECE770B516460D4604461EE0204671
:102A9000FFF7C1FE08B1012070BD681C16D0FEF71B
:102AA000D1FF801BA84200D885B920684069C04387
:102AB00000060BD5002044F8300F20216173A0736D
:102AC000216941F0200121612073E4E72068406919
:102AD000C0430006DBD4002070BD00003EB50024DA
:102AE0001C48009401941A49029401608915816080
:102AF00004730475032505614FF460214460C161CE
:102B0000FEF7C2FC08B172B6FEE70120CDE9004035
:102B1000694610480294FEF735FC08B172B6FEE72C
:102B2000042000900220019069460A48FEF72AFC22
:102B300008B172B6FEE70620CDE9000569460548F2
:102B4000FEF720FC002801D072B6FEE73EBD000073
:102B5000002401402C00002030B585B00024184826
:102B60000094019402940394816941F020018161F1
:102B7000816901F020010491816941F004018161C2
:102B8000816901F004010491816941F008018161CA
:102B900080690C4D00F008000490002206212846B0
:102BA000FEF74BFF062000900120CDE90104022032
:102BB000039069462846FEF74BFE05B030BD000085
:102BC000001002400008014010B586B000241748EC
:102BD000009401940294039404944FF0804105946E
:102BE00001601F21C0E901144FF6FE71C0E9031412
:102BF0008461FFF7BBFC08B172B6FEE74FF480506A
:102C0000009069460948FFF72CFD08B172B6FEE74F
:102C10002020CDE9040404A90448FFF773FC002830
:102C200001D072B6FEE706B010BD0000B000002073
:102C3000FEE7FEE770470000FEB50020012400908B
:102C4000CDE9014069461F48FEF79CFB1D48FEF791
:102C500073FDA61E31461B48FEF7D0FC1948FEF74F
:102C60000FFC194D28601748FEF7C6FD0420CDE97A
:102C7000000469461348FEF785FB1248FEF75CFD29
:102C800031461048FEF7BAFC0E48FEF7F9FB6860C3
:102C90000C48FEF7B1FD0620CDE90004694609485D
:102CA000FEF770FB0748FEF747FD31460548FEF783
:102CB000A5FC0448FEF7E4FBA8600248FEF79CFD73
:102CC000FEBD00002C000020500100207047FFF7DF
:102CD00047B830B593B028216846FDF731FB142181
:102CE0000AA8FDF72DFB002501200F9510951195E1
:102CF000010412958DE823000490C004CDE908106A
:102D0000022407946846FFF759FA08B172B6FEE745
:102D10000AA90F2081E831004FF48060CDE90D054C
:102D200001210AA8FFF76EF908B172B6FEE74FF469
:102D3000804011900F940FA8FFF7EEF8002801D003
:102D400072B6FEE713B030BD70470000F0B5026800
:102D5000194B1A4C1A4D4FF08047984205D0B84293
:102D600003D0A04201D0A84203D122F070064A68E5
:102D70003243984205D0B84203D0A04201D0A842C5
:102D800003D122F44074CA6822434C6922F08002C5
:102D9000224302608A68C2620A688262984201D154
:102DA00009690163012141610169C90703D0016912
:102DB00021F001010161F0BD002C01400004004040
:102DC0000008004010B5846842EA032224F47F44DE
:102DD0000A432243826010BD826822F070020A43D7
:102DE00042F007018160704710B5036A046A24F05D
:102DF00001040462846924F0F00444EA021423F01C
:102E00000A020A438461026210BD10B5036A046AB3
:102E100024F010040462846923F0A00324F47044B5
:102E200044EA023243EA01118261016210BD0000EE
:102E300070B5044600680169E26821F4405111430D
:102E400001612169A0680843616908432168CA6873
:102E500041F20C639A430243CA6020684169A26947
:102E600021F44071114341611E492068884202D11A
:102E7000FFF76EF901E0FFF75BF900EBC00101EB32
:102E80000012606864218000B2FBF0F3B3FBF1F341
:102E90006FF018067343B2FBF0F5B2FBF0F605EBEA
:102EA0008305322303EB0515B5FBF1F5B6FBF1F60F
:102EB00005F0F00505EB0615B2FBF0F6B2FBF0F0FD
:102EC000B0FBF1F06FF01802504306EB800003EB0B
:102ED0000010B0FBF1F0216800F00F00284488607A
:102EE00070BD000000380140FEE7490050EAC120F3
:102EF00018BF04204A0D18BF40F0010040F2FF72D5
:102F0000B2EB515F08BF40F00200012808BF052066
:102F100070470907090E002804DB00F1E02080F863
:102F20000014704700F00F0000F1E02080F8141D3D
:102F3000704730380A2801D20120704700207047BE
:102F4000026081608380704710B53220FEF76EFC0E
:102F5000302000F035F80520FEF768FC302000F046
:102F60002FF80120FEF762FC302000F029F80A203B
:102F7000FEF75CFC202000F023F80A20FEF756FC48
:102F8000282000F01DF80120FEF750FC082000F07A
:102F900017F80120FEF74AFC012000F011F801208B
:102FA000FEF744FC0120FEF741FC062000F008F883
:102FB0000120FEF73BFCBDE810400C20AFF3008081
:102FC0001CB500F0F00141F00C028DF8042041F036
:102FD000080100018DF8051040F00C018DF8061075
:102FE00040F008008DF8070064200090042301AA37
:102FF0004E210248FEF7F0FD1CBD00005C000020E1
:103000001CB500F0F00141F00D028DF8042041F0F4
:10301000090100018DF8051040F00D018DF8061032
:1030200040F009008DF8070064200090042301AAF5
:103030004E210248FEF7D0FD1CBD00005C000020C0
:1030400010B5044602E0641CFFF7DAFF2078002880
:10305000F9D110BD1CB5FEF78BFEFFF73AFEFFF766
:103060007BFD7B487949002401607A49C0E901145D
:103070004FF48041C0E9034144618461C46104624A
:10308000FEF7E6FC08B172B6FEE7FFF727FD7048D1
:1030900071499C3001604FF4E131C0E901140C2109
:1030A000C460C0E904418461C461FFF748FB08B112
:1030B00072B6FEE7FFF788FDFFF746FFDFF890B135
:1030C000664EDFF89C81DFF89CA14FF4FA790BF192
:1030D000F40B00BFFFF7B0FD012204213046FEF7DC
:1030E000ACFC4846FEF7A2FB5D46DBF8000000F0B2
:1030F0002BFE00F0FDFD0022434600F099FA5A4CE9
:103100000022234600F000FC0022234600F0FAFCD7
:1031100000F0B4F95446CAF8180000F0E9FD024680
:103120000B4652A15648FDF75BF88020FFF748FF99
:103130000A20FEF77BFB5248FFF782FF3220FEF7A2
:1031400075FB434902235431324601F19000FFF7E9
:10315000F7FE4B481C3800F0C1F801286BD049A19C
:103160004748FDF73DF8206800F0C2FD02460B46D7
:1031700049A14348FDF734F8C020FFF721FF0A209A
:10318000FEF754FB3E48FFF75BFF3220FEF74EFB95
:10319000606800F0ADFD02460B4644A13848FDF7DB
:1031A0001FF89420FFF70CFF0A20FEF73FFB34487E
:1031B000FFF746FF3220FEF739FB6F682761A868EA
:1031C000606100F08DFB0022434600F031FA0022DE
:1031D0003A4B00F099FB00F051F9394900F0C8FD75
:1031E000A0603846FEF7AEF80746E060A06800F041
:1031F0007FFD04460D46384600F07AFD02460B4638
:1032000030A11F48CDE90045FCF7EAFFD420FFF7C5
:10321000D7FE0A20FEF70AFB1948FFF711FF3220FC
:10322000FEF704FB002204213046FEF706FC484668
:10323000FEF7FCFA4EE7124F1C3F387B00F084FD8E
:103240002060787B00F080FD60608CE700540040D7
:103250005C000020A0860100003801400008014009
:1032600000FEAF400000002000005940444F2041C4
:103270004D204441543A20252E3266252520000059
:103280005C0100204661696C6564207265616420A0
:1032900044485431310000004E4849455420444FC1
:1032A000204B4B3A20252E3266200000444F20410F
:1032B0004D204B4B3A2025302E3266000000144042
:1032C0000000404157617465723A20252E316670C6
:1032D000482F20252E316643000000002DE9F04FD5
:1032E0004FF0000A8BB0044656465746012100F0C5
:1032F00097F8A18800222068FEF79FFB1220FEF7B6
:1033000095FA72B6A068FFF771F90021204600F027
:1033100087F8A0680025006845624FF4FA7903E059
:10332000406A80B248453BD8A1882068FEF780FB00
:103330000128A0680068F3D0456203E0406A80B2CB
:1033400048452DD8A1882068FEF772FB0028A068A8
:103350000068F3D0416A456202E080B248451FD858
:10336000A1882068FEF764FB0128A0680068406A15
:10337000F3D04FF00008EB46A0680068456203E018
:10338000406A80B248450BD8A1882068FEF750FB00
:103390000028A0680068F3D0456206E0484504D9DB
:1033A00062B600200BB0BDE8F08FA1882068FEF760
:1033B0003FFB0128A0680068406A80B2EED0A0F10F
:1033C0001501092901D2002003E03D38132801D25C
:1033D000012082460BF808A008F10108B8F1280F77
:1033E000CADBA068FFF72AF962B600215846425CA2
:1033F000491C32445206160E0829F8DB1021425CA3
:10340000491C3A445206170E1829F8DB2020401CAC
:103410002828FCDB70087908217360730120C1E75C
:103420001FB5002200920192029203920322012909
:1034300009D0002906D1818800910392006869466D
:10344000FEF706FA1FBD8188009101210191F4E782
:1034500010B500290AD00878002807D0054878441C
:10346000FDF7F4FA002801D0002010BD024878448E
:1034700010BD0000B20B0000AA0B000021F00042BA
:10348000A2F16052B2F5801F01F0004328BFD2F1D3
:103490007F6C0BD95FEA001C43EAC20242EB50701A
:1034A00018BF704728BF20F001007047B2F5801F99
:1034B000BCBF184670474FEA410C1CF5001F02D2F2
:1034C000084600F01CBD70B500F0C8FA0000008985
:1034D000FFF7F6BF4FF00040A0F5800070470000F6
:1034E00010B591EA030F48BF83F0004300F11E833B
:1034F000841A71EB030C05D2121943EB0C03001B69
:1035000061EB0C01DFF824E14FEA1154A4EB135CEA
:103510001EEA430F18BF9EEA445F73D023EA0E03EE
:10352000DCF1200E21EA045143F4801332D322FA55
:103530000CFE10EB0E0023FA0CFE41EB0E01CCF159
:10354000200E03FA0EFE10EB0E0051F10001B1F552
:10355000801FCCF1200E32D201EB045112FA0EF290
:10356000BDE8104058BF7047401C38BF5FEA4202B8
:1035700018BF7047002814BF20F0010041F100017E
:103580004FEA410313F5001F38BF7047A1F1C04156
:1035900000F0B2BA012A43EB0302ACF1200CDCF1DB
:1035A0001F0E32BF4FF0000E23FA0CF310EB030096
:1035B00041EB0451B4EB115FD0D0A1EB045101F504
:1035C000801149085FEA300001EB04510ED350F13D
:1035D000000038BF12FA0EFE08D1BDE81040C9E75E
:1035E000401C38BF5FEA4202CAD1C3E7BDE81040C1
:1035F0004FEA410313F5001F38BF7047A1F1C041E6
:1036000000F07ABA9EEA445F08D011EA5E0FBDE886
:10361000104004BF01F0004100207047BDE8104099
:1036200070B500F01BFA00BF64FBBE3E0000E0FF77
:103630002DE9C04130B4DFF8A0C23CEA111418BF34
:103640003CEA131400F0EC8081EA03051CEA111433
:1036500044EAD57418BF1CEA131500F0C780A4EB28
:1036600005044FF0004545EAC12145EAC32341EA7C
:10367000505143EA525304F17F74994204F50034E7
:103680004FEAC0204FEAC22208BF904200F09C805F
:103690004FEA13650FF24016765D4FEA134506FBBD
:1036A00005F7C7F1807706FB07F74FEAD737A7FB87
:1036B00003687642C8F58038A7FB06CE38BFA8F16C
:1036C000010807FB08E64FF0000EA6FB028CE6FBA4
:1036D00003CEDCF1000CCEF1004E38BFAEF1010E8E
:1036E000A6FB0C584FF000074FF00005E6FB0E87D5
:1036F000A1FB08C6A0FB07CE16EB0E0645F10005A0
:10370000E1FB076515F1E04E7EBFA4F580345FEA6A
:1037100046066D4116F1800745F100054FEA17276F
:103720004FEA066647EA0567A6F1DE46B6F1805F16
:103730004FEA15251FD9384624F0010C05EBC4715A
:10374000BCF1FE6F01EB0C1102D8F0BCBDE80081AA
:1037500024425CBF01F5801E9EEAC47F02D4F0BC07
:10376000BDE80081244238D4F0BCA1F1C041BDE8DD
:10377000004100F0C1B94FEAD22242EA43524FEA77
:10378000D323A7FB02864FEAD02040EA415007FB33
:1037900003661EEA0E0F4FEAD12105FB026658BFF1
:1037A000A6EB0056B6EB00564FEA520E4EEAC37E29
:1037B00018EB0E0E56EB530EBDD518EB02085E410A
:1037C0007F1C55F10005B6E74FF480154FF0000758
:1037D0004FF000064FF00008ADE7F0BC4FF00000DE
:1037E00001F1C04101F00041BDE8008111EA0C1F68
:1037F0000CEA131500D00CE013EA0C1F00F0258032
:103800004FF00000F0BC81EA030101F00041BDE887
:103810000081F0BCBDE8004181EA030100F06CB911
:10382000F0BCBDE8004170B500F018F9097EFC3E1F
:1038300000F007B881EA03014FF0000001F00041F9
:10384000704781EA030100F057B9F0BCBDE80041C0
:103850004FF0000021497047FFFDFBF9F7F5F4F246
:10386000F0EEEDEBE9E8E6E4E3E1E0DEDDDBDAD81B
:10387000D7D5D4D3D1D0CFCDCCCBCAC8C7C6C5C479
:10388000C2C1C0BFBEBDBCBBBAB9B8B7B6B5B4B390
:10389000B2B1B0AFAEADACABAAA9A8A8A7A6A5A47B
:1038A000A3A3A2A1A09F9F9E9D9C9C9B9A9999983F
:1038B0009797969595949393929191908F8F8E8EE2
:1038C0008D8C8C8B8B8A898988888787868585846F
:1038D00084838382828181800000FF070000F87F5B
:1038E000B0FA80F310FA03F10AD0C3F11D0303F517
:1038F00080634FEA41504FEA035202EBD1217047F7
:103900004FF0000070470000DFF848C170B51CEAB6
:10391000111E1EBF1CEA13159EEA0C0F95EA0C0F30
:1039200000F06F8081EA030423EA4C134EEAD47E50
:1039300021EA4C1141F4801143F48013AE44A1FB01
:10394000024CA0FB0365AEF17F7E361955EB0C05EA
:10395000A1FB034C4CF10003A0FB021C16EB0C0670
:10396000654153F10003094218BF46F0010613F404
:10397000007F0BD14FEA03314FEA0530340341EAAF
:10398000155140EA16506FF003020AE04FEAC321D6
:103990004FEAC520F40241EA555140EA56506FF013
:1039A000020202EB2E4201EB025585EACE710AD0EB
:1039B0005FEA440C18BF24F0004450F1000041F1CC
:1039C000000120EAD47040F2FE7C624500D270BD56
:1039D000A84214BF4FF080444FF04044002E08BF6F
:1039E0000024BEF1806FA8BFA1F1C041BDE87040C6
:1039F00080F282804FF0000001F1C04101F00041EF
:103A000070479EEA0C0F0CEA131518BF95EA0C0FCD
:103A100006D04FF0000081EA030E0EF0004170BDA9
:103A200000F01CF88900013E00F007B800F009B86A
:103A30004FEA430C5FEA5C5C08D081EA030100F0C6
:103A40005BB84FEA410C5FEA5C5CF6D14FF00000D6
:103A5000014970470000FF070000F87F0EF1020ED9
:103A60002EF0030E5EF8046B364205D4012A43EBB8
:103A7000030515F5001F12D8012841EB010C1CF5B8
:103A8000001F0CD80ED14FEAD17C15F5001F0CEBAE
:103A90004C0C0CF1020C08BF4CEBD37C04E04FF053
:103AA000080C01E04FEAD37C0CEB4C0526FA05F636
:103AB00006F00706B6F1040C06D20EEB860CBDE844
:103AC00070404CF0010C6047DFE80CF0090B02027B
:103AD0004FF000414FF00000A1F5002170BD1946E4
:103AE0001046012851EB010418BFD4F5001484BF1F
:103AF000002001F0004170BD0808A0F500114FEA58
:103B00003101704791EA030F10B581F000413FF594
:103B1000EFAC83F0004300F009B8000010B591EA63
:103B2000030F48BF83F000433FF5E2AC841A71EB0A
:103B3000030C07D212198CF0004C43EB0C03001B52
:103B400061EB0C01DFF8A4E14FEA1154A4EB135C24
:103B50001EEA430F18BF9EEA445F00F0B08023EADC
:103B60006E03524221EA0451C3EB6E0338BF5B1E61
:103B7000DCF1200E25D322FA0CFE10EB0E0043FAE6
:103B80000CFE41EB0E01CCF1200E03FA0EFE10EB01
:103B90000E0051F10001CCF1200E29D412FA0EF2E0
:103BA00001EB0451BDE8104058BF7047401C1CBFDA
:103BB000B2F1004F704700280CBF491C20F00100F3
:103BC000704712EB020E43EB030218BF4FF0010ED9
:103BD0004EEA4202ACF1200CDCF11E0E54D943FA3D
:103BE0000CFE10EB0E0051F1FF31CCF11E0ED5D5BD
:103BF0000EF1010E12FA0EFE404141EB010101EB04
:103C0000445C5FEA5C5C10D910EBDE7001EB0451A0
:103C100038BFBEF1004FBDE8104018BF7047002804
:103C20000CBF491C20F00100704730D24FEAD42C61
:103C300011F5001124F400641BD0B1FA81F20B3AA3
:103C4000A41AA41ED2F12003914030FA03F31943C1
:103C5000904001EBCC71002C01EB0451BDE8104009
:103C6000A8BF704701F1C0414FF0000001F00041D2
:103C70007047B0FA80F310FA03F100D110BDE41AD6
:103C8000173C4805C90AE4E701EB045110BD49108F
:103C900001EB0451BDE810404FEA300002E04FF064
:103CA000000170474A0008BF0042F8D0B2F5001F7B
:103CB00028BF704701F000414FF0000070479EEAB6
:103CC000445F07D011EA5E0FBDE8104004BF002139
:103CD00000207047BDE8104070B5FFF7BFFE00BF81
:103CE00040DFF63E83F00041104670470000E0FFE1
:103CF00043004FEAD30C4FEA3C0C43401FBF400740
:103D00000CF1605113F0FE4F70471CF0006F03D1AF
:103D100000200CF0004170470CF0004343EA507063
:103D200010B540EACC0000F0A4F800BF00000092FB
:103D30004FEA0001FFF7E0BE4FF000414FF00000F6
:103D4000A1F5002170470000B0FA80F310FA03F2E9
:103D5000C3F19D030AD0D90501EB1220530638BFE9
:103D6000704700F1010008BF20F00100704700001B
:103D70004FF47F0C1CEAD0121EBF1CEAD11392EA4A
:103D80000C0F93EA0C0F00F0478090EA010F48BF38
:103D900042F480724FF0004C4CEA00204CEA0121C2
:103DA00002EB0302A0FB0113A2F50002002918BFD9
:103DB00043F001035B0028BF4FEA330342EB22428A
:103DC0005FEA132C4CEBC2502EBFBCEB436FB2F535
:103DD0007C0F70474FEA036CBCF1004F08BF20F026
:103DE0000100B2F57C0F38BF70470BD582F0FF029F
:103DF00012F5803FC8BF704700F1C040D8BF00F047
:103E00000040704700F5000C5FEA4C0C48BF70475B
:103E1000B0F1C04000F073B890EA010F0CEAD11382
:103E200048BF42F48072624538BF634504D280EADD
:103E3000010000F00040704710B500F01AF800BF14
:103E40008900013E00F007B800F009B85FEA410CB4
:103E50005FEA1C6C08D080EA010000F050B85FEA0D
:103E6000400C5FEA1C6CF6D14FF00040A0F58000DA
:103E700070470EF1020E2EF0030E5EF8044B244242
:103E800004D44FEA4102B2F17F4F11D84FEA400308
:103E9000B3F17F4F0CD80ED14FEAD07CB2F17F4FF7
:103EA0000CEB4C0C0CF1020C08BF4CEBD17C04E089
:103EB0004FF0080C01E04FEAD17C0CEB4C0324FAE4
:103EC00003F404F00704B4F1040C06D20EEB840CE6
:103ED000BDE810404CF0010C6047DFE80CF007082B
:103EE00002024FF00040A0F5800010BD08464200DD
:103EF00018BFD2F1807288BF00F0004010BDFF21D2
:103F000041EAD050C0057047FCF71DBB0102020317
:103F10000405060708090A0B0C0D0E0F101001020C
:103F200002030405060708090A0B0C0D0E0F1010FA
:103F30000000000000000000010203040607080959
:103F4000000000000102030404000008000000005B
:103F5000000000020001000010000000024000000C
:103F6000000000A00000000005400000000000C8A4
:103F7000000000000C4000000000409C0000000019
:103F8000194000000020BCBE0000000034400000CA
:103F9000BFC91B8E00000004B5400000504BCFD0BD
:103FA0006607E2CF010000006C4100003E8251AA8A
:103FB000DFEEA73401000000D9420000DCB5A0E22A
:103FC0003A301F97FFFFFFFFB4450000FD25A0C852
:103FD000E9A3C14FFFFFFFFFFF3F0000000000808B
:103FE00000000000FF3F0000000000800000000013
:103FF0002C400008000000202C00000028010008D0
:10400000584000082C000020A407000044010008CC
:104010001C00000043000000F8FFFFFF0C00000040
:104020000E0000000F0000002E0000000000000045
:104030000000000000000000000000000000000080
:10404000000000000000000001000000100000005F
:084050000000000000127A00DC
:04000005080000ED02
:00000001FF
